:020000041000EA
:1000000000B5324B212058609868022188439860DF
:10001000D860186158612E4B002199600221596106
:100020000121F02299502B49196001219960352056
:1000300000F044F80222904214D00621196600F024
:1000400034F8196E01211966002018661A6600F04E
:100050002CF8196E196E196E052000F02FF8012189
:100060000842F9D1002199601B49196000215960AB
:100070001A491B48016001219960EB211966A021F2
:10008000196600F012F800219960164914480160C1
:100090000121996001BC002800D000471248134993
:1000A000086003C880F30888084703B5996A0420EC
:1000B0000142FBD001200142F8D103BD02B5186610
:1000C0001866FFF7F2FF186E186E02BD00000240BE
:1000D000000000180000070000035F00212200005C
:1000E000F4000018222000A00001001008ED00E03C
:1000F00000000000000000000000000074B24E7A12
:1001000000200420F7010010CB010010CD010010E9
:10011000C9010010C9010010C9010010C901001077
:10012000C9010010C9010010C9010010CF01001061
:10013000C9010010C9010010D1010010D301001045
:10014000C1010010C1010010C1010010C101001067
:10015000C1010010C1010010C1010010C101001057
:10016000C1010010C1010010C1010010C101001047
:10017000C1010010C1010010C1010010C101001037
:10018000C1010010C1010010C1010010C101001027
:10019000C1010010C1010010C1010010C101001017
:1001A000C1010010C1010010C1010010C101001007
:1001B000C1010010C1010010C1010010C1010010F7
:1001C000EFF30580103800BE00BE00BE00BE00BECA
:1001D00000BE00BEF2EB8871741800109018001079
:1001E0003802001090A31AE700201E49086006C8D4
:1001F00081F3088810471C480068002801D00020BF
:10020000F3E70DA40ECC002902D000F012F8F9E7B4
:100210001649174A002000E001C19142FCD115495E
:100220008847154988471549884700BEFDE701C939
:1002300001C29A42FBD3704790180010C000002002
:1002400038020020081A00100000042000000420DA
:10025000081A001000100420001004200000000004
:100260007047000008ED00E0000000D038020020D8
:10027000080600201114001081020010091400105B
:1002800070B5D024802519202406AD0400F00CF8A8
:100290006562FA20656100F005FCFA20A561800026
:1002A00000F000FCF5E7C0460123D0228340402146
:1002B000120693629361094A83009A181268C0007B
:1002C0005140C0220A4006498C4663441A60054BDF
:1002D0009C460523604443607047C04604C001400B
:1002E00004D00140004001400FB400B5084883B07D
:1002F00001F0D2F9049B002B07D005A91800019149
:1003000001F066F8034801F0C7F9012001F078F820
:100310009C1700100018001070B5EFF3108C72B627
:100320000D4D2B68002BFCD0BFF35F8F0724CB084B
:10033000C618C05C01230C40A3401C0004400342CB
:1003400007D103433370BFF35F8F2C608CF31088A9
:1003500070BD1000FFF7C8FF2C0100D0044A1078D0
:10036000431CDBB2172B00D9102313707047C04613
:10037000E80100200021044B044ABFF35F8F02C351
:100380009342FAD17047C046000100D0800100D0EE
:10039000054B064A1360064A136053609360D360AE
:1003A00013615361936170478080808000E400E0B6
:1003B00004E400E01F2318401E3B8340002905D0C1
:1003C000C021044A490053501360704780220149FC
:1003D0008B50FAE700E100E010B5EFF3108C72B635
:1003E0000F4A1368002BFCD0BFF35F8F0D4B10300A
:1003F0009B6880001B580C4A934203D0994201D05D
:1004000000F0B8FD074B9B681950BFF35F8FBFF337
:100410005F8F0022024B1A608CF3108810BDC0461B
:10042000240100D000ED00E0C1010010024B9C4609
:10043000614489000160704740000034F8B5134DF5
:10044000134E2C00FF27B5421ED22368002B0FD07D
:10045000FFF784FF01002800FFF7E8FFA780BFF344
:100460005F8F0834B4420FD223682500002BEFD1F0
:10047000FFF774FF01002800FFF7D8FF2771BFF3D3
:100480005F8F0834B442EFD3F8BDC046300200207D
:10049000380200200A4B1968EFF3108072B60A6820
:1004A000002AFCD0BFF35F8F1B68BFF35F8F002271
:1004B0001A6080F3108840BF002000217047C046BA
:1004C00004060020F0B5DE4657464E464546E0B5E8
:1004D00085B0EFF30582032313409A0011000392C5
:1004E000B64A5258904601229A409146B44B1A603F
:1004F0004B46B4484363434608229B5E9A46002B12
:100500003DDA43469B881BB2002B00DBA1E043464B
:100510009B79002B00D0F3E0434608241C5F002C9D
:1005200023DB42465269630094461B19DB00634497
:100530009C68DD68631C00D10FE1A24803998446E2
:100540006144826A0B69A61A9B1A9E4215D34A46D9
:10055000036A1A4211D09B4800F056FB241A8D41C1
:10056000002D02DCC4D1002CC2D040BF05B0F0BCCD
:10057000BB46B246A946A046F0BD0C61EBE7424639
:1005800052695B0093465344DB009B445B469E6884
:10059000DF6800F039FB801BB9410029B1DB002F77
:1005A00000DAE5E05B46884A1B69934200D1D8E057
:1005B00041465A460820085E5288000410435A46B5
:1005C0005169984704000D0023002B4300D1CFE070
:1005D000002D00DBE8E0361BAF4134003D005B46F8
:1005E0009C60DD600021595E002900DA89E74346FE
:1005F0005B6922009C462B0048004018C000604404
:100600008668C768921BBB41002B00DA79E7434636
:10061000664602000094019519810CE07B00DB190D
:10062000DB00F318009801999C68DD68001BA94164
:10063000002904DB1A000023D75E002FEEDA5B46A8
:100640001F805346138043469B881BB2002B00DA61
:100650005DE743461A69EFF3108172B61368002B09
:10066000FCD0BFF35F8F43469B8842461BB29A463D
:1006700001235B4293801369BFF35F8F00221A60EE
:1006800081F310885346002B00DA40E743465B694C
:100690009C46082343449B4653465F0043465744C9
:1006A000FF0008229A5E67445E46BC68FD68002A27
:1006B00019DB3B000094019567469C4604E01E0050
:1006C0000023F25E002A0BDB0098019953009B186F
:1006D000DB00FB189C68DD68001BA9410029EEDAED
:1006E0006346BC461F005346338000217B5E3A8040
:1006F0009A46002BD0DA43469B79002B00D10BE7BA
:10070000002342469371434646460821595E083607
:100710004B1C00D129E747468C46556902E006008C
:100720004B1C17D04B005B18DB00E8180A00E95E91
:1007300043881BB2002BF2DA01235B42DC17836093
:10074000C4606245ECD031803B89944603803A8195
:100750004B1CE7D1B8466446E1E66B1C00D0ECE6E2
:10076000F9E65B465C69200023699847002821D19F
:100770005B4642461B8813811269EFF3108372B601
:1007800011680029FCD0BFF35F8F4246594652885A
:100790000A804246514651801269BFF35F8F0021A3
:1007A000116083F31088ACE6064800F02DFA241897
:1007B0004D4114E76568246806E7C046F00500204F
:1007C0003C70054000400540C504001070B52E4C3B
:1007D0002569002D04D00A212C48FFF727FE70BDA3
:1007E0002B4E0321300000F005FAE660FFF7B6FD5E
:1007F000284B03229C46D02322701B061B68012134
:100800006370254B6044A3600F23800020610220A9
:10081000638063694942A18019800231198647319A
:100820001D83585218315A5275325C399952183218
:1008300001319952183201319952183201319952CD
:10084000083518329D52023118329952183201314E
:100850009952183201319952183201319952183295
:10086000013199521832013199520C4B0C49DC601C
:1008700001303562FFF7B0FD01210320FFF79AFD3B
:10088000084B1D60A7E7C046EC01002004060020CD
:100890000040054040000034FFFF1000F00500203C
:1008A000C50400103860054070B5C646010000B5AB
:1008B0000469EFF3108C72B620680028FCD0BFF3F7
:1008C0005F8F02200D5E48696C0080466419E40069
:1008D0004444002D01DB208848800869BFF35F8F06
:1008E000002606608CF31088002D30DBE3606388FF
:1008F0000598013320615B0406985B0CA26060617F
:100900001A1C002B21D090B22B04628018430A6974
:10091000EFF3108672B61368002BFCD0BFF35F8F25
:100920008B8823808D800B69BFF35F8F00221A6054
:1009300086F310880B7801329A40CB6805498C46C3
:1009400063441A6040BCB04670BD0122DBE7012061
:100950004042F7E73C20000010B543890A14934257
:1009600033DD53009B184269DB00944604696344FD
:10097000EFF3108C72B62268002AFCD0BFF35F8FB1
:100980005A88090494B2090C8A4208D00369BFF35B
:100990005F8F00221A608CF31088002010BD802227
:1009A000120214435C80012302698371BFF35F8FDD
:1009B000002111608CF31088054902788C46934021
:1009C000C268012062441360E8E70020E6E7C04601
:1009D0003C200000F0B504000D0006267642F71713
:1009E000C64636196F4100B582B08F4214D811D077
:1009F00000F012F932003B00121A8B41002B15DC7B
:100A0000002B44D02000290000F010F902B080BC77
:100A1000B846F0BD8642EBD90026002700F0FCF86E
:100A200032003B00121A8B41002BE9DD00F0F4F894
:100A300032003B00121A8B41002B0ADB002301938A
:100A4000144B3200009314483B00FFF72DFF0028A1
:100A5000D8DBB0460026BC46104A114F7B6A9C4545
:100A600004D8B96A8845CDD99C45CBD11168EFF33C
:100A7000108072B60B68002BFCD0BFF35F8F136839
:100A8000BFF35F8F1E6080F3108820BFE6E7002A67
:100A9000B8D0CBE795040010EC010020040600203C
:100AA0000040054070B5060000F0B6F8FA220400D8
:100AB0000D00002330000021920000F011FC00190D
:100AC0006941002902DBFFF785FF70BD0120014964
:100AD0004042F8E7FFFFFF7FF0B5D6464F46464657
:100AE000C0B504000D0082B0EFF30583002B30D1B8
:100AF0003C4B9A461B68834226D03B4B2F009846BE
:100B0000DB689946434648461E7800F07DF80B00A6
:100B100049460436B6000200715826000020B61A75
:100B20009F41891AB84224DC21D020BF2F4A536A42
:100B3000AB422AD3926A0120A2424AD302B0E0BC5F
:100B4000BA46B146A846F0BD53465B688B42D4D145
:100B5000EBE7264A0020536A8B42EFD3926A0130BA
:100B6000A242EBD2581A421E9041C0B2E6E7B1420F
:100B7000DBD900F051F822002B00121A8B41002B18
:100B800005DA1A4A536AAB42D4D20020D6E70023D2
:100B90000193174B2200009340462B00FFF784FE81
:100BA000011EEEDD53461C605D60104B2E005A6A3C
:100BB000954215D89B6AA34210D34046FFF7CCFE5E
:100BC0000A4A0020536A9E42B8D8926A0130A24273
:100BD000B4D2E81A421E9041C0B2AFE79542ECD1C0
:100BE00020BFEAE708020020EC0100200040054099
:100BF0009504001010B5024A0248FFF78DFB10BDA6
:100C0000AC170010B80500200300416A0A00986A7A
:100C1000596A8A42FAD17047034B596A0A00986AA6
:100C2000596A9142FAD1704700400540064A536A1A
:100C30009942FCD807D1044B02E05A6A914202D192
:100C40009A6A8242F9D3704700400540F8B5DE4603
:100C50004E4657464546E0B58B4605000A991800B2
:100C6000160000F0B1FA0A9B6C001F02324B6419A7
:100C70009C46A4006444636881469F4200D9676033
:100C80002B1FDBB29846012B30D9C02380229B0159
:100C9000E31812011A60294BAD0059599A460029F0
:100CA0001BD1226876017240E0268023164042461E
:100CB0005B01E3181E60012A30D9802380229B014A
:100CC000E31812011A6053464A4667605A51F0BC55
:100CD000BB46B246A946A046F8BD586900F074FA72
:100CE000431C5800C0180338FDD2DAE75B46012BDD
:100CF000CBD1C02303229B01E3181A60023AA368F8
:100D00001A42FCD0E0232268760156401E40802320
:100D10000A4A5B019246E3181E60AD005A462168FC
:100D2000514003220A401A6001225B469A40A368A0
:100D30001A42FCD0C1E7C04600800040BC0500203C
:100D4000F0B546464F46D646C0B51F00344B44006A
:100D50009C462418A4006444636888461600FF2B50
:100D600002D880235B006360031FDBB29A46012B2D
:100D700030D9C02380229B01E31812011A60294B4D
:100D800085005959994600291BD122687601724085
:100D9000E0268023164052465B01E3181E60012ABC
:100DA00030D9802380229B01E31812011A6080232E
:100DB0005B0063604B465F51E0BCBA46B146A84653
:100DC000F0BD586900F000FA431C5800C018033801
:100DD000FDD2DAE74346012BCBD1C02303229B018E
:100DE000E3181A60023AA3681A42FCD0E023226892
:100DF000760156401E4080230A4A5B019146E31863
:100E00001E60850042462168514003220A401A6054
:100E1000012342469340A2681342FCD0C1E7C0467A
:100E200000800040BC050020014B8000C058704786
:100E3000BC050020F8B5040020481D0017000E0076
:100E400000F0C2F90100380000F0BEF9069B290449
:100E50001B0319432368002B1EDB194B194DE218A5
:100E600053425A4180235B019C461203164B624455
:100E70001A60164B1A6017002B689F43FBD1144B66
:100E80002660E2182123A06013602368002BFCDA9F
:100E90000823E1601360F8BD3F2322681340B3428A
:100EA000DBD1A3681B051B0D8342D6D1EE22E3687C
:100EB000D20213408B42D0D1EDE7C046001BB700F1
:100EC0000040FDBF08C0004000E0004000F00040CE
:100ED000043000008023024A9B000B43D36270471A
:100EE00000800540142310B50100188804331B88C6
:100EF000984710BD162310B50100188802331B88CF
:100F0000984710BDF8B54746CE4680B50F1E19D09C
:100F100014239946043304000025012698464B46C5
:100F20001888434621681B88984701C4431E98418E
:100F3000013540420640AF42F1D13000C0BCB94655
:100F4000B046F8BD0126F8E7AA23064A1B01136044
:100F50008D235B00D3600449044B19605368002B58
:100F6000FCDA70470040024000B0FA000060024026
:100F70007047C04610B50148FFF7B6F9D01700100A
:100F800070B5074D074EB54209D20024013E761BCD
:100F9000B60808CD984723000134B342F9D170BD9B
:100FA000601700109C170010054B064A06491A608E
:100FB000064A074B1A6010000B689843FBD1704734
:100FC00000E00040BFCDFBFE08C00040FE7F3C00BB
:100FD00000F00040044BDB6C002B03D18022034B5C
:100FE000D2021A607047C046000011504C201150C8
:100FF000044A054B1A60054A1368DB018033FBD1B4
:101000007047C046FFFFFF0100F0004008C00040ED
:101010004022034B9A675A671A67DA667047C046E0
:1010200000F0014010B5FFF7A5F910BDF8B527494C
:10103000274B284D5B1A9C082200302C00D9302207
:101040002800920000F0B6F92F2C3CD830202F2138
:10105000A700EB195B07204A001BDB0F091B0529C2
:1010600017D92600002B01D0EA51661CC01AE318DC
:101070009B004108EB18C900C9181A605A60083370
:101080008B42FAD1012301009943741888421AD087
:10109000A700EA51631C2F2C15D09B00EA50A31C1B
:1010A0002E2C10D09B00EA50E31C2D2C0BD09B0063
:1010B000EA50231D2C2C06D09B00EA50631D2B2CDC
:1010C00001D09B00EA50054B9D60F8BD0001001067
:1010D000C001001000000020C101001000ED00E080
:1010E000002310B5294C82B0A367FFF72DFF012222
:1010F000274B1A60636C012BFCD10322254B1A602D
:10110000224A936B012BFCD1013300930121224A27
:1011100022480433FFF78EFE052301210093204A65
:101120002048FFF787FE0022022104201E4BFFF714
:1011300007FE0022012105201C4BFFF701FE0022C3
:10114000002107201A4BFFF7FBFD00220021082099
:10115000174BFFF7F5FD8023DB00009300220021F1
:101160000920134BFFF772FD0022104B00210620CF
:10117000FFF7E6FD0420FFF757FE0E4900F024F8C4
:1011800001000020FFF7A6FE02B010BD0080004065
:101190003CB0004030B00040002F68590080024051
:1011A000008C864700C00240001BB70040597307FF
:1011B000006CDC0240420F0001480421014B18473B
:1011C00010020020050F0010114A936F9B0813D2E4
:1011D00010665166002905D0FFE7FFE7FFE7516F72
:1011E000106F704704B5002801D00020C04300F004
:1011F0009FFA002104BDC046F0B5146E556E576FBE
:10120000166FFFF7E5FF1466556657671667F0BD62
:10121000000000D0132370B51D78012D19D014DD06
:101220001E48FFF767FE06001D48FFF763FE1D4CD2
:1012300080223100200000F0BDF8022D06D01A48AF
:10124000FFF750FE194B186070BD164C184BA36485
:10125000F5E7174B134C23606360A360E3602361E1
:101260006361A361E36123626362A362E362236358
:101270006363A363E36323646364A364E364236538
:101280006365A365E36523666366A366E366236718
:101290006367A367E367A364D1E7C04653440000D4
:1012A00053460000B80300204C3300000006002025
:1012B000B512001007B5604601880A0A0230DF2A1D
:1012C000FAD1C9B2820804D30288408800041043CE
:1012D00000E00068014A5050039007BDB8030020A9
:1012E00051434343C9188C46110C83B24B4310B48D
:1012F000040C614392B280B2504362431C041B0C45
:10130000001910BC59411304120CC018514161441A
:1013100070470000132310B512481C78FFF7EAFD50
:101320000100012C0AD003DD80220F4800F042F8B2
:101330000E48FFF7D7FD0E4B186010BD0A4C542223
:10134000200000F037F80B4B6365A365E365236667
:101350006366A366E36623676367A367E367236245
:10136000E361E5E753460000B80400204C33000079
:10137000000600207913001007B5604601880A0AAC
:101380000230DF2AFAD1C9B2820804D30288408829
:101390000004104300E00068014A5050039007BD6C
:1013A000B804002001480421014B18472002002006
:1013B000050F0010014B5B68184700002002002059
:1013C00010B5002800D110BD00F01AF9FBE7C046A7
:1013D00010B5094A0300146884B0002C08D001221B
:1013E00000910648524203A9A047012004B010BD55
:1013F00000F052F90020F9E7EC050020C1130010BD
:1014000000BEFDE77047C04610B5FFF7F9FFC046C4
:1014100070B5FFF7B5FD074D074EB54209D2002460
:10142000013E761BB60808CD984723000134B3422D
:10143000F9D170BD9C1700109C170010030010B567
:10144000080011001B68984710BDC046F0B546461D
:101450004F46D646C0B5437D80460E001700002B90
:1014600046D0002A3FDD4B1E9946244B012500241F
:1014700000209A460DE04B461B5D0D3B5A425341FE
:10148000325DDBB20A2A0BD02B00013401359F42BA
:101490001ADD002CEFD14346325D1B7D0A2AF3D1C1
:1014A000002BF1D1A04204DA4346211A1B68301800
:1014B0009847434650461B6802219847013428004C
:1014C0002B0001359F42E4DC874204DD4346391A94
:1014D0001B6830189847F619013E33780D3B5A4285
:1014E000534142461375E0BCBA46B146A846F0BD2A
:1014F0000368110030009847F5E7C04670180010E7
:10150000F0B5DE4657464E464546E0B585B0170075
:101510001C0006000D00FFF77FFB0023314A121864
:101520004B41002B59DB304908008A4600F008F98E
:1015300001906B1C03D1300000F0CCF80500002CAA
:1015400026D12A4B98462A4B1C68002C15D0002F18
:1015500021D1284F02E02469002C0ED02368002BF3
:10156000F9D03B68002B01D0A342F4D120002A001F
:101570003100C0472469002CF0D1019B002B28D1F9
:10158000280005B0F0BCBB46B246A946A046F0BD57
:10159000194B9846D7E7174B994602ABDF1D0A2334
:1015A0009B4602E02469002CE7D02368002BF9D089
:1015B0004B461B68002B01D0A342F3D12A00310017
:1015C0002000C0475B460122390020003B70C04725
:1015D000E8E7504600F0BCF8D2E70122074B524240
:1015E000A1E7C04640420F00300200203D14001029
:1015F000E4050020E80500204D140010FFFFFF7FE8
:10160000F0B5CE46474680B583B06B460600DD1D7B
:101610002870FFF701FB00231A4A12184B41002BD8
:101620002BDB19490800884600F08AF8174B8146E1
:101630001C68002C14D0164F02E02469002C0FD037
:101640002368002BF9D03B68002B01D0A342F4D1D2
:10165000200001222900FFF7F9FE2469002CEFD1B8
:101660004B46002B05D1300003B0C0BCB946B04694
:10167000F0BD404600F06CF8F5E70122054B524200
:10168000CFE7C04640420F0030020020E4050020B2
:10169000E8050020FFFFFF7F70B5040000F01AF896
:1016A00001230100050001222000FFF729FF084B5C
:1016B0001C68002C06D06368002B05D0984724696D
:1016C000002CF8D1280070BD2469002CF3D1F9E773
:1016D000E405002010B583070AD00300032102E0CF
:1016E00001330B4205D01A78002AF9D1181A10BD1F
:1016F000030019680C4A0D4C8A188A4322420FD104
:101700005968094A04338A188A43224208D1596821
:10171000054A04338A188A432242F1D000E001339B
:101720001A78002AFBD1E1E7FFFEFEFE8080808070
:1017300001B40248844601BC604700BFD5010020C7
:1017400001B40248844601BC604700BF7901002013
:1017500001B40248844601BC604700BFAD010020CF
:10176000A90F0010D50F0010B9110010A51300101B
:101770001512001015130010E1100010F10F0010E9
:1017800011100010251000103D0400102D10001045
:0C179000CD070010710F00109103001035
:10179C000A2A2A2A2050414E4943202A2A2A0A0082
:1017AC00486172647761726520616C61726D20258D
:1017BC006420616C726561647920636C61696D652C
:1017CC006400000048617264206173736572740078
:1017DC0052656C6561736500626F6F74325F77324E
:1017EC003571303830000000322E332E30000000BE
:1017FC007069636F000000003131325F626C696E9A
:10180C006B000000536570202033203230323600DC
:10181C0005005250DE65F468081A0010060052509C
:10182C005422A29D1018001006005250861C030270
:10183C000418001006005250BBFF3CB6FC170010F9
:10184C0006005250ABB36053F41700100600525010
:10185C00E182887FE417001006005250D3F07542E5
:08186C00DC1700100D0A00005A
:101874001C1800102818001034180010401800100C
:0C1884004C1800105818001064180010D8
:1018900003000068EFF3108C72B60268002AFCD0D7
:1018A000BFF35F8F04229A56002A0BDB00290FD06A
:1018B00000200A601B68BFF35F8F00221A608CF360
:1018C00010887047D0221206126801201A71F1E7C1
:1018D0000020EFE7F0B54F46D6464646C0B51F009C
:1018E000D0231B061B6804009A46002390469946A5
:1018F0000CE02268BFF35F8F4946116083F31088C4
:101900004046390000F050F800281AD12668EFF35D
:10191000108372B63568002DFCD0BFF35F8F257938
:101920007F2DE6D9524622712268BFF35F8F0021D6
:10193000116083F310880120E0BCBA46B146A84686
:10194000F0BD0020F8E7C04670B582B001A90400E0
:1019500016001D00FFF79CFF002807D1D0221206B9
:10196000019B12785BB252B2934201D102B070BDBA
:1019700032002B002000FFF7ADFFF7E70268EFF31E
:10198000108172B61368002BFCD0BFF35F8FFF236A
:1019900003710368BFF35F8F00221A6081F3108820
:1019A00040BF70477047C04601B40248844601BC3E
:1019B000604700BFD90A00101000000000000000BE
:1019C0000000000000000000000000000000000017
:1019D0003802002000000000FFFFFFFFFFFFFF7F35
:1019E000503300004C3300005433000052330000E9
:1019F0004D5300004D4300005334000043340000B9
:081A00000000000000000000DE
:04000005100001E9FD
:00000001FF
